:020000040800F2
:100000000028002025020008C9010008CF010008CF
:10001000D5010008DB010008E10100080000000034
:10002000000000000000000000000000E7010008E0
:10003000F301000800000000FF0100080B020008A7
:100040006D0200086D0200086D0200086D020008D4
:100050006D0200086D0200086D0200086D020008C4
:100060006D0200086D0200086D0200086D020008B4
:100070006D0200086D0200086D0200086D020008A4
:100080006D0200086D0200086D0200086D02000894
:100090006D0200086D0200086D0200086D02000884
:1000A0006D0200086D0200086D0200086D02000874
:1000B0006D0200086D020008000000006D020008DB
:1000C0006D02000800000000000000006D02000842
:1000D000000000006D0200086D0200080000000032
:1000E0006D0200086D0200086D02000800000000AB
:1000F0000000000000000000000000000000000000
:0C01000000000000000000005FF808F1A3
:10010C0010B5054C237833B9044B13B10448AFF345
:10011C0000800123237010BD0400002000000000AB
:10012C00DC02000808B5034B1BB103490348AFF3CD
:10013C00008008BD0000000008000020DC02000860
:10014C0080B483B000AF184B1B68174A43F004030C
:10015C001360164B1B68154A23F470031360134B82
:10016C001B68124A43F40013136000237B6002E007
:10017C007B6801337B607B680D4A9342F8DD0D4A46
:10018C0013686FF34D33136000233B6002E03B6850
:10019C0001333B603B68084A9342F8DD054A13681B
:1001AC0043F400531360E0E71810024004080140C8
:1001BC009F8601000C080140A086010080B400AFAE
:1001CC00FEE780B400AFFEE780B400AFFEE780B47A
:1001DC0000AFFEE780B400AFFEE780B400AF00BF15
:1001EC00BD4680BC704780B400AF00BFBD4680BC2C
:1001FC00704780B400AF00BFBD4680BC704780B56F
:10020C0000AF00F02FF800BF80BD80B400AF00BF7E
:10021C00BD4680BC70470000FFF7F7FF0B480C4948
:10022C000C4A002302E0D458C4500433C4188C4246
:10023C00F9D3094A094C002301E013600432A242AD
:10024C00FBD300F021F8FFF77BFF70470000002084
:10025C0004000020FC020008040000202400002000
:10026C00FEE7000080B400AF054B1B781A46054B27
:10027C001B681344034A136000BFBD4680BC704723
:10028C00000000202000002070B500260C4D0D4C05
:10029C00641BA410A64209D100F01AF800260A4DDE
:1002AC000A4C641BA410A64205D170BD55F8043B42
:1002BC0098470136EEE755F8043B98470136F2E7CC
:1002CC00F4020008F4020008F4020008F802000826
:1002DC00F8B500BFF8BC08BC9E467047F8B500BF27
:0802EC00F8BC08BC9E467047F7
:0402F40031010008CC
:0402F8000D010008EC
:0402FC0001000000FD
:0400000508000225C8
:00000001FF
